{
  "transactions": [
    {
      "hash": "0x5edbe7885ccf0d29a0e28f9e351fb869604e4d40bd31239d9c23c095cd36a717",
      "transactionType": "CREATE",
      "contractName": "MintNFT",
      "contractAddress": "0x25a27f4257fd7d771cf2da7c9d972880d8af204f",
      "function": null,
      "arguments": null,
      "transaction": {
        "from": "0xf6c6f66528ba9dd00583fb74525481f4275273c8",
        "gas": "0x1a581c",
        "value": "0x0",
        "input": "0x608060405234801561001057600080fd5b50336040518060400160405280600781526020016612dc1bdc13919560ca1b8152506040518060400160405280600481526020016312d3919560e21b815250816000908161005e919061019c565b50600161006b828261019c565b5050506001600160a01b03811661009c57604051631e4fbdf760e01b81526000600482015260240160405180910390fd5b6100a5816100ab565b5061025a565b600680546001600160a01b038381166001600160a01b0319831681179093556040519116919082907f8be0079c531659141344cd1fd0a4f28419497f9722a3daafe3b4186f6b6457e090600090a35050565b634e487b7160e01b600052604160045260246000fd5b600181811c9082168061012757607f821691505b60208210810361014757634e487b7160e01b600052602260045260246000fd5b50919050565b601f82111561019757806000526020600020601f840160051c810160208510156101745750805b601f840160051c820191505b818110156101945760008155600101610180565b50505b505050565b81516001600160401b038111156101b5576101b56100fd565b6101c9816101c38454610113565b8461014d565b6020601f8211600181146101fd57600083156101e55750848201515b600019600385901b1c1916600184901b178455610194565b600084815260208120601f198516915b8281101561022d578785015182556020948501946001909201910161020d565b508482101561024b5786840151600019600387901b60f8161c191681555b50505050600190811b01905550565b6115a6806102696000396000f3fe608060405234801561001057600080fd5b50600436106101375760003560e01c806370a08231116100b85780639605ce631161007c5780639605ce6314610282578063a22cb46514610295578063b88d4fde146102a8578063c87b56dd146102bb578063e985e9c5146102ce578063f2fde38b146102e157600080fd5b806370a082311461022e578063715018a6146102415780638462151c146102495780638da5cb5b1461026957806395d89b411461027a57600080fd5b80632f745c59116100ff5780632f745c59146101cc57806332cb6b0c146101ed57806342842e0e146101f5578063472e49e4146102085780636352211e1461021b57600080fd5b806301ffc9a71461013c57806306fdde0314610164578063081812fc14610179578063095ea7b3146101a457806323b872dd146101b9575b600080fd5b61014f61014a3660046110b7565b6102f4565b60405190151581526020015b60405180910390f35b61016c610346565b60405161015b9190611124565b61018c610187366004611137565b6103d8565b6040516001600160a01b03909116815260200161015b565b6101b76101b236600461116c565b610401565b005b6101b76101c7366004611196565b610410565b6101df6101da36600461116c565b6104a0565b60405190815260200161015b565b6101df600c81565b6101b7610203366004611196565b6105b3565b6101b761021636600461116c565b6105d3565b61018c610229366004611137565b6106a7565b6101df61023c3660046111d3565b6106b2565b6101b76106fa565b61025c6102573660046111d3565b61070e565b60405161015b91906111ee565b6006546001600160a01b031661018c565b61016c6107f5565b6101b7610290366004611278565b610804565b6101b76102a336600461133c565b610843565b6101b76102b6366004611378565b61084e565b61016c6102c9366004611137565b610866565b61014f6102dc36600461143d565b6108db565b6101b76102ef3660046111d3565b610909565b60006001600160e01b031982166380ac58cd60e01b148061032557506001600160e01b03198216635b5e139f60e01b145b8061034057506301ffc9a760e01b6001600160e01b03198316145b92915050565b60606000805461035590611470565b80601f016020809104026020016040519081016040528092919081815260200182805461038190611470565b80156103ce5780601f106103a3576101008083540402835291602001916103ce565b820191906000526020600020905b8154815290600101906020018083116103b157829003601f168201915b5050505050905090565b60006103e382610947565b506000828152600460205260409020546001600160a01b0316610340565b61040c828233610980565b5050565b6001600160a01b03821661043f57604051633250574960e11b8152600060048201526024015b60405180910390fd5b600061044c83833361098d565b9050836001600160a01b0316816001600160a01b03161461049a576040516364283d7b60e01b81526001600160a01b0380861660048301526024820184905282166044820152606401610436565b50505050565b60006104ab836106b2565b82106104f55760405162461bcd60e51b81526020600482015260196024820152784f776e657220696e646578206f7574206f6620626f756e647360381b6044820152606401610436565b600060015b600c811161056e5760008181526007602052604090205460ff1680156105395750846001600160a01b031661052e826106a7565b6001600160a01b0316145b1561055c5783820361054e5791506103409050565b81610558816114aa565b9250505b80610566816114aa565b9150506104fa565b5060405162461bcd60e51b81526020600482015260196024820152784f776e657220696e646578206f7574206f6620626f756e647360381b6044820152606401610436565b6105ce8383836040518060200160405280600081525061084e565b505050565b6105db610a86565b6000811180156105ec5750600c8111155b61062b5760405162461bcd60e51b815260206004820152601060248201526f125b9d985b1a59081d1bdad95b88125160821b6044820152606401610436565b60008181526007602052604090205460ff16156106815760405162461bcd60e51b8152602060048201526014602482015273151bdad95b88185b1c9958591e481b5a5b9d195960621b6044820152606401610436565b61068b8282610ab3565b6000908152600760205260409020805460ff1916600117905550565b600061034082610947565b60006001600160a01b0382166106de576040516322718ad960e21b815260006004820152602401610436565b506001600160a01b031660009081526003602052604090205490565b610702610a86565b61070c6000610acd565b565b6060600061071b836106b2565b905060008167ffffffffffffffff81111561073857610738611231565b604051908082528060200260200182016040528015610761578160200160208202803683370190505b509050600060015b600c81116107eb5760008181526007602052604090205460ff1680156107a85750856001600160a01b031661079d826106a7565b6001600160a01b0316145b156107d957808383815181106107c0576107c06114d1565b6020908102919091010152816107d5816114aa565b9250505b806107e3816114aa565b915050610769565b5090949350505050565b60606001805461035590611470565b61080c610a86565b60005b81518110156105ce5761083b8383838151811061082e5761082e6114d1565b60200260200101516105d3565b60010161080f565b61040c338383610b1f565b610859848484610410565b61049a3385858585610bbe565b606061087182610947565b50600061088960408051602081019091526000815290565b905060008151116108a957604051806020016040528060008152506108d4565b806108b384610ce9565b6040516020016108c49291906114e7565b6040516020818303038152906040525b9392505050565b6001600160a01b03918216600090815260056020908152604080832093909416825291909152205460ff1690565b610911610a86565b6001600160a01b03811661093b57604051631e4fbdf760e01b815260006004820152602401610436565b61094481610acd565b50565b6000818152600260205260408120546001600160a01b03168061034057604051637e27328960e01b815260048101849052602401610436565b6105ce8383836001610d7c565b6000828152600260205260408120546001600160a01b03908116908316156109ba576109ba818486610e82565b6001600160a01b038116156109f8576109d7600085600080610d7c565b6001600160a01b038116600090815260036020526040902080546000190190555b6001600160a01b03851615610a27576001600160a01b0385166000908152600360205260409020805460010190555b60008481526002602052604080822080546001600160a01b0319166001600160a01b0389811691821790925591518793918516917fddf252ad1be2c89b69c2b068fc378daa952ba7f163c4a11628f55a4df523b3ef91a4949350505050565b6006546001600160a01b0316331461070c5760405163118cdaa760e01b8152336004820152602401610436565b61040c828260405180602001604052806000815250610ee6565b600680546001600160a01b038381166001600160a01b0319831681179093556040519116919082907f8be0079c531659141344cd1fd0a4f28419497f9722a3daafe3b4186f6b6457e090600090a35050565b6001600160a01b038216610b5157604051630b61174360e31b81526001600160a01b0383166004820152602401610436565b6001600160a01b03838116600081815260056020908152604080832094871680845294825291829020805460ff191686151590811790915591519182527f17307eab39ab6107e8899845ad3d59bd9653f200f220920489ca2b5937696c31910160405180910390a3505050565b6001600160a01b0383163b15610ce257604051630a85bd0160e11b81526001600160a01b0384169063150b7a0290610c00908890889087908790600401611516565b6020604051808303816000875af1925050508015610c3b575060408051601f3d908101601f19168201909252610c3891810190611553565b60015b610ca4573d808015610c69576040519150601f19603f3d011682016040523d82523d6000602084013e610c6e565b606091505b508051600003610c9c57604051633250574960e11b81526001600160a01b0385166004820152602401610436565b805181602001fd5b6001600160e01b03198116630a85bd0160e11b14610ce057604051633250574960e11b81526001600160a01b0385166004820152602401610436565b505b5050505050565b60606000610cf683610efe565b600101905060008167ffffffffffffffff811115610d1657610d16611231565b6040519080825280601f01601f191660200182016040528015610d40576020820181803683370190505b5090508181016020015b600019016f181899199a1a9b1b9c1cb0b131b232b360811b600a86061a8153600a8504945084610d4a57509392505050565b8080610d9057506001600160a01b03821615155b15610e52576000610da084610947565b90506001600160a01b03831615801590610dcc5750826001600160a01b0316816001600160a01b031614155b8015610ddf5750610ddd81846108db565b155b15610e085760405163a9fbf51f60e01b81526001600160a01b0384166004820152602401610436565b8115610e505783856001600160a01b0316826001600160a01b03167f8c5be1e5ebec7d5bd14f71427d1e84f3dd0314c0f7b2291e5b200ac8c7c3b92560405160405180910390a45b505b5050600090815260046020526040902080546001600160a01b0319166001600160a01b0392909216919091179055565b610e8d838383610fd6565b6105ce576001600160a01b038316610ebb57604051637e27328960e01b815260048101829052602401610436565b60405163177e802f60e01b81526001600160a01b038316600482015260248101829052604401610436565b610ef0838361103c565b6105ce336000858585610bbe565b60008072184f03e93ff9f4daa797ed6e38ed64bf6a1f0160401b8310610f3d5772184f03e93ff9f4daa797ed6e38ed64bf6a1f0160401b830492506040015b6d04ee2d6d415b85acef81000000008310610f69576d04ee2d6d415b85acef8100000000830492506020015b662386f26fc100008310610f8757662386f26fc10000830492506010015b6305f5e1008310610f9f576305f5e100830492506008015b6127108310610fb357612710830492506004015b60648310610fc5576064830492506002015b600a83106103405760010192915050565b60006001600160a01b038316158015906110345750826001600160a01b0316846001600160a01b03161480611010575061101084846108db565b8061103457506000828152600460205260409020546001600160a01b038481169116145b949350505050565b6001600160a01b03821661106657604051633250574960e11b815260006004820152602401610436565b60006110748383600061098d565b90506001600160a01b038116156105ce576040516339e3563760e11b815260006004820152602401610436565b6001600160e01b03198116811461094457600080fd5b6000602082840312156110c957600080fd5b81356108d4816110a1565b60005b838110156110ef5781810151838201526020016110d7565b50506000910152565b600081518084526111108160208601602086016110d4565b601f01601f19169290920160200192915050565b6020815260006108d460208301846110f8565b60006020828403121561114957600080fd5b5035919050565b80356001600160a01b038116811461116757600080fd5b919050565b6000806040838503121561117f57600080fd5b61118883611150565b946020939093013593505050565b6000806000606084860312156111ab57600080fd5b6111b484611150565b92506111c260208501611150565b929592945050506040919091013590565b6000602082840312156111e557600080fd5b6108d482611150565b602080825282518282018190526000918401906040840190835b81811015611226578351835260209384019390920191600101611208565b509095945050505050565b634e487b7160e01b600052604160045260246000fd5b604051601f8201601f1916810167ffffffffffffffff8111828210171561127057611270611231565b604052919050565b6000806040838503121561128b57600080fd5b61129483611150565b9150602083013567ffffffffffffffff8111156112b057600080fd5b8301601f810185136112c157600080fd5b803567ffffffffffffffff8111156112db576112db611231565b8060051b6112eb60208201611247565b9182526020818401810192908101908884111561130757600080fd5b6020850194505b8385101561132d5784358083526020958601959093509091019061130e565b80955050505050509250929050565b6000806040838503121561134f57600080fd5b61135883611150565b91506020830135801515811461136d57600080fd5b809150509250929050565b6000806000806080858703121561138e57600080fd5b61139785611150565b93506113a560208601611150565b925060408501359150606085013567ffffffffffffffff8111156113c857600080fd5b8501601f810187136113d957600080fd5b803567ffffffffffffffff8111156113f3576113f3611231565b611406601f8201601f1916602001611247565b81815288602083850101111561141b57600080fd5b8160208401602083013760006020838301015280935050505092959194509250565b6000806040838503121561145057600080fd5b61145983611150565b915061146760208401611150565b90509250929050565b600181811c9082168061148457607f821691505b6020821081036114a457634e487b7160e01b600052602260045260246000fd5b50919050565b6000600182016114ca57634e487b7160e01b600052601160045260246000fd5b5060010190565b634e487b7160e01b600052603260045260246000fd5b600083516114f98184602088016110d4565b83519083019061150d8183602088016110d4565b01949350505050565b6001600160a01b0385811682528416602082015260408101839052608060608201819052600090611549908301846110f8565b9695505050505050565b60006020828403121561156557600080fd5b81516108d4816110a156fea2646970667358221220e79ea51548a7512ae80055a0c2a80ccd66024db4afbed6f9374b6db63769c82364736f6c634300081b0033",
        "nonce": "0x43",
        "chainId": "0x14a34"
      },
      "additionalContracts": [],
      "isFixedGasLimit": false
    },
    {
      "hash": "0xa0dc72db25b393d7cf080b7be792dcc8f194b8828d67eed5fa9779333aa29ca1",
      "transactionType": "CALL",
      "contractName": "MintNFT",
      "contractAddress": "0x25a27f4257fd7d771cf2da7c9d972880d8af204f",
      "function": "batchMintNFTs(address,uint256[])",
      "arguments": [
        "0xF6c6f66528BA9DD00583fb74525481f4275273c8",
        "[2, 4, 8]"
      ],
      "transaction": {
        "from": "0xf6c6f66528ba9dd00583fb74525481f4275273c8",
        "to": "0x25a27f4257fd7d771cf2da7c9d972880d8af204f",
        "gas": "0x40667",
        "value": "0x0",
        "input": "0x9605ce63000000000000000000000000f6c6f66528ba9dd00583fb74525481f4275273c800000000000000000000000000000000000000000000000000000000000000400000000000000000000000000000000000000000000000000000000000000003000000000000000000000000000000000000000000000000000000000000000200000000000000000000000000000000000000000000000000000000000000040000000000000000000000000000000000000000000000000000000000000008",
        "nonce": "0x44",
        "chainId": "0x14a34"
      },
      "additionalContracts": [],
      "isFixedGasLimit": false
    },
    {
      "hash": "0x6c93fa104a8b4d0c44ee647839694bee0d7d03c62918f883b72c92784564bae7",
      "transactionType": "CALL",
      "contractName": "MintNFT",
      "contractAddress": "0x25a27f4257fd7d771cf2da7c9d972880d8af204f",
      "function": "batchMintNFTs(address,uint256[])",
      "arguments": [
        "0x5CA12DfEeADE5CDB6cbaA94726a68cF636AF633A",
        "[1, 11, 5]"
      ],
      "transaction": {
        "from": "0xf6c6f66528ba9dd00583fb74525481f4275273c8",
        "to": "0x25a27f4257fd7d771cf2da7c9d972880d8af204f",
        "gas": "0x4514c",
        "value": "0x0",
        "input": "0x9605ce630000000000000000000000005ca12dfeeade5cdb6cbaa94726a68cf636af633a000000000000000000000000000000000000000000000000000000000000004000000000000000000000000000000000000000000000000000000000000000030000000000000000000000000000000000000000000000000000000000000001000000000000000000000000000000000000000000000000000000000000000b0000000000000000000000000000000000000000000000000000000000000005",
        "nonce": "0x45",
        "chainId": "0x14a34"
      },
      "additionalContracts": [],
      "isFixedGasLimit": false
    },
    {
      "hash": "0xfa350e09680854ffbd24e7a8449270d19d2fe8177c1fde8b40c080a3f5151d53",
      "transactionType": "CALL",
      "contractName": "MintNFT",
      "contractAddress": "0x25a27f4257fd7d771cf2da7c9d972880d8af204f",
      "function": "batchMintNFTs(address,uint256[])",
      "arguments": [
        "0x891381e22c7cF22EF0a1F967Ec3CeD029c8c910e",
        "[10, 3, 9]"
      ],
      "transaction": {
        "from": "0xf6c6f66528ba9dd00583fb74525481f4275273c8",
        "to": "0x25a27f4257fd7d771cf2da7c9d972880d8af204f",
        "gas": "0x4514c",
        "value": "0x0",
        "input": "0x9605ce63000000000000000000000000891381e22c7cf22ef0a1f967ec3ced029c8c910e00000000000000000000000000000000000000000000000000000000000000400000000000000000000000000000000000000000000000000000000000000003000000000000000000000000000000000000000000000000000000000000000a00000000000000000000000000000000000000000000000000000000000000030000000000000000000000000000000000000000000000000000000000000009",
        "nonce": "0x46",
        "chainId": "0x14a34"
      },
      "additionalContracts": [],
      "isFixedGasLimit": false
    },
    {
      "hash": "0x54ee217aa31e4eacdef9d790cf126d48e0e049fe69e9f63b59a0012f51c571c2",
      "transactionType": "CALL",
      "contractName": "MintNFT",
      "contractAddress": "0x25a27f4257fd7d771cf2da7c9d972880d8af204f",
      "function": "batchMintNFTs(address,uint256[])",
      "arguments": [
        "0x0ACD7fdBDc0AFD1dE17A9F082D4a35589b35b532",
        "[6, 7, 12]"
      ],
      "transaction": {
        "from": "0xf6c6f66528ba9dd00583fb74525481f4275273c8",
        "to": "0x25a27f4257fd7d771cf2da7c9d972880d8af204f",
        "gas": "0x4514c",
        "value": "0x0",
        "input": "0x9605ce630000000000000000000000000acd7fdbdc0afd1de17a9f082d4a35589b35b5320000000000000000000000000000000000000000000000000000000000000040000000000000000000000000000000000000000000000000000000000000000300000000000000000000000000000000000000000000000000000000000000060000000000000000000000000000000000000000000000000000000000000007000000000000000000000000000000000000000000000000000000000000000c",
        "nonce": "0x47",
        "chainId": "0x14a34"
      },
      "additionalContracts": [],
      "isFixedGasLimit": false
    }
  ],
  "receipts": [
    {
      "status": "0x1",
      "cumulativeGasUsed": "0x2253d3",
      "logs": [
        {
          "address": "0x25a27f4257fd7d771cf2da7c9d972880d8af204f",
          "topics": [
            "0x8be0079c531659141344cd1fd0a4f28419497f9722a3daafe3b4186f6b6457e0",
            "0x0000000000000000000000000000000000000000000000000000000000000000",
            "0x000000000000000000000000f6c6f66528ba9dd00583fb74525481f4275273c8"
          ],
          "data": "0x",
          "blockHash": "0x4ebf477306025d46b3556377467430d6ce0a6e963d4ec9d39bc080a8da5c630e",
          "blockNumber": "0xfafa37",
          "transactionHash": "0x5edbe7885ccf0d29a0e28f9e351fb869604e4d40bd31239d9c23c095cd36a717",
          "transactionIndex": "0x9",
          "logIndex": "0x10",
          "removed": false
        }
      ],
      "logsBloom": "0x00000000000000000000000000000000000000000000000000800000000000000000000000000000000020000000000000000000000000000000000000000000000000000000000000000000000000000001000000000000000000000000000000000000020000000000000000000800000000000000000000000000000002400000000010000000000000000000000000000000000000000000000000000000000000000000000000100008000000000000000000000000000000000000000000000000000000000000000000000000000000000000000000000000000020001000000000000000000000000000000000000000000000000000000000000000",
      "type": "0x2",
      "transactionHash": "0x5edbe7885ccf0d29a0e28f9e351fb869604e4d40bd31239d9c23c095cd36a717",
      "transactionIndex": "0x9",
      "blockHash": "0x4ebf477306025d46b3556377467430d6ce0a6e963d4ec9d39bc080a8da5c630e",
      "blockNumber": "0xfafa37",
      "gasUsed": "0x144549",
      "effectiveGasPrice": "0x1de9b111",
      "from": "0xf6c6f66528ba9dd00583fb74525481f4275273c8",
      "to": null,
      "contractAddress": "0x25a27f4257fd7d771cf2da7c9d972880d8af204f",
      "l1BaseFeeScalar": "0x44d",
      "l1BlobBaseFee": "0x1",
      "l1BlobBaseFeeScalar": "0xa118b",
      "l1Fee": "0x1ebd2879fd7",
      "l1GasPrice": "0x79b2665fb",
      "l1GasUsed": "0xe56a"
    },
    {
      "status": "0x1",
      "cumulativeGasUsed": "0x253dd2",
      "logs": [
        {
          "address": "0x25a27f4257fd7d771cf2da7c9d972880d8af204f",
          "topics": [
            "0xddf252ad1be2c89b69c2b068fc378daa952ba7f163c4a11628f55a4df523b3ef",
            "0x0000000000000000000000000000000000000000000000000000000000000000",
            "0x000000000000000000000000f6c6f66528ba9dd00583fb74525481f4275273c8",
            "0x0000000000000000000000000000000000000000000000000000000000000002"
          ],
          "data": "0x",
          "blockHash": "0x4ebf477306025d46b3556377467430d6ce0a6e963d4ec9d39bc080a8da5c630e",
          "blockNumber": "0xfafa37",
          "transactionHash": "0xa0dc72db25b393d7cf080b7be792dcc8f194b8828d67eed5fa9779333aa29ca1",
          "transactionIndex": "0xa",
          "logIndex": "0x11",
          "removed": false
        },
        {
          "address": "0x25a27f4257fd7d771cf2da7c9d972880d8af204f",
          "topics": [
            "0xddf252ad1be2c89b69c2b068fc378daa952ba7f163c4a11628f55a4df523b3ef",
            "0x0000000000000000000000000000000000000000000000000000000000000000",
            "0x000000000000000000000000f6c6f66528ba9dd00583fb74525481f4275273c8",
            "0x0000000000000000000000000000000000000000000000000000000000000004"
          ],
          "data": "0x",
          "blockHash": "0x4ebf477306025d46b3556377467430d6ce0a6e963d4ec9d39bc080a8da5c630e",
          "blockNumber": "0xfafa37",
          "transactionHash": "0xa0dc72db25b393d7cf080b7be792dcc8f194b8828d67eed5fa9779333aa29ca1",
          "transactionIndex": "0xa",
          "logIndex": "0x12",
          "removed": false
        },
        {
          "address": "0x25a27f4257fd7d771cf2da7c9d972880d8af204f",
          "topics": [
            "0xddf252ad1be2c89b69c2b068fc378daa952ba7f163c4a11628f55a4df523b3ef",
            "0x0000000000000000000000000000000000000000000000000000000000000000",
            "0x000000000000000000000000f6c6f66528ba9dd00583fb74525481f4275273c8",
            "0x0000000000000000000000000000000000000000000000000000000000000008"
          ],
          "data": "0x",
          "blockHash": "0x4ebf477306025d46b3556377467430d6ce0a6e963d4ec9d39bc080a8da5c630e",
          "blockNumber": "0xfafa37",
          "transactionHash": "0xa0dc72db25b393d7cf080b7be792dcc8f194b8828d67eed5fa9779333aa29ca1",
          "transactionIndex": "0xa",
          "logIndex": "0x13",
          "removed": false
        }
      ],
      "logsBloom": "0x04000000000000000000000000000000000000000000000000000000000000000000000000000000000020000000000000000000000080000000000000000000000000000000000000000008000000000000000000000000000000000000000008000000020000000000000000000800000000000000000000000010000002000080000010000000000000000000000000000000000000000000000000000000000000000000000000100108000000000000000000000000002000000000000040000002000000000000000000000000000000008000000000000000000020001000000000000000000000000000000000000000008000000000000000000000",
      "type": "0x2",
      "transactionHash": "0xa0dc72db25b393d7cf080b7be792dcc8f194b8828d67eed5fa9779333aa29ca1",
      "transactionIndex": "0xa",
      "blockHash": "0x4ebf477306025d46b3556377467430d6ce0a6e963d4ec9d39bc080a8da5c630e",
      "blockNumber": "0xfafa37",
      "gasUsed": "0x2e9ff",
      "effectiveGasPrice": "0x1de9b111",
      "from": "0xf6c6f66528ba9dd00583fb74525481f4275273c8",
      "to": "0x25a27f4257fd7d771cf2da7c9d972880d8af204f",
      "contractAddress": null,
      "l1BaseFeeScalar": "0x44d",
      "l1BlobBaseFee": "0x1",
      "l1BlobBaseFeeScalar": "0xa118b",
      "l1Fee": "0xf40d25f20",
      "l1GasPrice": "0x79b2665fb",
      "l1GasUsed": "0x71d"
    },
    {
      "status": "0x1",
      "cumulativeGasUsed": "0x283195",
      "logs": [
        {
          "address": "0x25a27f4257fd7d771cf2da7c9d972880d8af204f",
          "topics": [
            "0xddf252ad1be2c89b69c2b068fc378daa952ba7f163c4a11628f55a4df523b3ef",
            "0x0000000000000000000000000000000000000000000000000000000000000000",
            "0x0000000000000000000000005ca12dfeeade5cdb6cbaa94726a68cf636af633a",
            "0x0000000000000000000000000000000000000000000000000000000000000001"
          ],
          "data": "0x",
          "blockHash": "0x4ebf477306025d46b3556377467430d6ce0a6e963d4ec9d39bc080a8da5c630e",
          "blockNumber": "0xfafa37",
          "transactionHash": "0x6c93fa104a8b4d0c44ee647839694bee0d7d03c62918f883b72c92784564bae7",
          "transactionIndex": "0xb",
          "logIndex": "0x14",
          "removed": false
        },
        {
          "address": "0x25a27f4257fd7d771cf2da7c9d972880d8af204f",
          "topics": [
            "0xddf252ad1be2c89b69c2b068fc378daa952ba7f163c4a11628f55a4df523b3ef",
            "0x0000000000000000000000000000000000000000000000000000000000000000",
            "0x0000000000000000000000005ca12dfeeade5cdb6cbaa94726a68cf636af633a",
            "0x000000000000000000000000000000000000000000000000000000000000000b"
          ],
          "data": "0x",
          "blockHash": "0x4ebf477306025d46b3556377467430d6ce0a6e963d4ec9d39bc080a8da5c630e",
          "blockNumber": "0xfafa37",
          "transactionHash": "0x6c93fa104a8b4d0c44ee647839694bee0d7d03c62918f883b72c92784564bae7",
          "transactionIndex": "0xb",
          "logIndex": "0x15",
          "removed": false
        },
        {
          "address": "0x25a27f4257fd7d771cf2da7c9d972880d8af204f",
          "topics": [
            "0xddf252ad1be2c89b69c2b068fc378daa952ba7f163c4a11628f55a4df523b3ef",
            "0x0000000000000000000000000000000000000000000000000000000000000000",
            "0x0000000000000000000000005ca12dfeeade5cdb6cbaa94726a68cf636af633a",
            "0x0000000000000000000000000000000000000000000000000000000000000005"
          ],
          "data": "0x",
          "blockHash": "0x4ebf477306025d46b3556377467430d6ce0a6e963d4ec9d39bc080a8da5c630e",
          "blockNumber": "0xfafa37",
          "transactionHash": "0x6c93fa104a8b4d0c44ee647839694bee0d7d03c62918f883b72c92784564bae7",
          "transactionIndex": "0xb",
          "logIndex": "0x16",
          "removed": false
        }
      ],
      "logsBloom": "0x00000000000000000000004000000000000000000000080000000000000000000000000000100000000000000000000000000000000000000000000000040000000010000000000000000008000000000000000000040000000000000000000000000000020000000000000000000800000000000000000000000010000002000000000000000000000000000000001000000800000000000000000000000000000000000000080000100008000000000000000000000000000000000000000000000002000000000000000000000000002000000000000000000000000060000000000000000000000000000000000000000000000000040000000000000000",
      "type": "0x2",
      "transactionHash": "0x6c93fa104a8b4d0c44ee647839694bee0d7d03c62918f883b72c92784564bae7",
      "transactionIndex": "0xb",
      "blockHash": "0x4ebf477306025d46b3556377467430d6ce0a6e963d4ec9d39bc080a8da5c630e",
      "blockNumber": "0xfafa37",
      "gasUsed": "0x2f3c3",
      "effectiveGasPrice": "0x1de9b111",
      "from": "0xf6c6f66528ba9dd00583fb74525481f4275273c8",
      "to": "0x25a27f4257fd7d771cf2da7c9d972880d8af204f",
      "contractAddress": null,
      "l1BaseFeeScalar": "0x44d",
      "l1BlobBaseFee": "0x1",
      "l1BlobBaseFeeScalar": "0xa118b",
      "l1Fee": "0xf40d25f20",
      "l1GasPrice": "0x79b2665fb",
      "l1GasUsed": "0x71d"
    },
    {
      "status": "0x1",
      "cumulativeGasUsed": "0x2b2558",
      "logs": [
        {
          "address": "0x25a27f4257fd7d771cf2da7c9d972880d8af204f",
          "topics": [
            "0xddf252ad1be2c89b69c2b068fc378daa952ba7f163c4a11628f55a4df523b3ef",
            "0x0000000000000000000000000000000000000000000000000000000000000000",
            "0x000000000000000000000000891381e22c7cf22ef0a1f967ec3ced029c8c910e",
            "0x000000000000000000000000000000000000000000000000000000000000000a"
          ],
          "data": "0x",
          "blockHash": "0x4ebf477306025d46b3556377467430d6ce0a6e963d4ec9d39bc080a8da5c630e",
          "blockNumber": "0xfafa37",
          "transactionHash": "0xfa350e09680854ffbd24e7a8449270d19d2fe8177c1fde8b40c080a3f5151d53",
          "transactionIndex": "0xc",
          "logIndex": "0x17",
          "removed": false
        },
        {
          "address": "0x25a27f4257fd7d771cf2da7c9d972880d8af204f",
          "topics": [
            "0xddf252ad1be2c89b69c2b068fc378daa952ba7f163c4a11628f55a4df523b3ef",
            "0x0000000000000000000000000000000000000000000000000000000000000000",
            "0x000000000000000000000000891381e22c7cf22ef0a1f967ec3ced029c8c910e",
            "0x0000000000000000000000000000000000000000000000000000000000000003"
          ],
          "data": "0x",
          "blockHash": "0x4ebf477306025d46b3556377467430d6ce0a6e963d4ec9d39bc080a8da5c630e",
          "blockNumber": "0xfafa37",
          "transactionHash": "0xfa350e09680854ffbd24e7a8449270d19d2fe8177c1fde8b40c080a3f5151d53",
          "transactionIndex": "0xc",
          "logIndex": "0x18",
          "removed": false
        },
        {
          "address": "0x25a27f4257fd7d771cf2da7c9d972880d8af204f",
          "topics": [
            "0xddf252ad1be2c89b69c2b068fc378daa952ba7f163c4a11628f55a4df523b3ef",
            "0x0000000000000000000000000000000000000000000000000000000000000000",
            "0x000000000000000000000000891381e22c7cf22ef0a1f967ec3ced029c8c910e",
            "0x0000000000000000000000000000000000000000000000000000000000000009"
          ],
          "data": "0x",
          "blockHash": "0x4ebf477306025d46b3556377467430d6ce0a6e963d4ec9d39bc080a8da5c630e",
          "blockNumber": "0xfafa37",
          "transactionHash": "0xfa350e09680854ffbd24e7a8449270d19d2fe8177c1fde8b40c080a3f5151d53",
          "transactionIndex": "0xc",
          "logIndex": "0x19",
          "removed": false
        }
      ],
      "logsBloom": "0x00000000000000000000000000000000000000000000000000000000000000000000000000000000000000000000000000000000060000000020000000200000008000000000000000000008000000000000000000000000000000000000000000000000020000000000000000000800000000000000000000000010000002000000000000000004010000000000000000001000000000000000000000000000000000000000000000100008000000000000000000800000000000000000400000000002000000000000000000000000000000000080000000000000000020000000000000000000000000000000000000000000000000000000000000800000",
      "type": "0x2",
      "transactionHash": "0xfa350e09680854ffbd24e7a8449270d19d2fe8177c1fde8b40c080a3f5151d53",
      "transactionIndex": "0xc",
      "blockHash": "0x4ebf477306025d46b3556377467430d6ce0a6e963d4ec9d39bc080a8da5c630e",
      "blockNumber": "0xfafa37",
      "gasUsed": "0x2f3c3",
      "effectiveGasPrice": "0x1de9b111",
      "from": "0xf6c6f66528ba9dd00583fb74525481f4275273c8",
      "to": "0x25a27f4257fd7d771cf2da7c9d972880d8af204f",
      "contractAddress": null,
      "l1BaseFeeScalar": "0x44d",
      "l1BlobBaseFee": "0x1",
      "l1BlobBaseFeeScalar": "0xa118b",
      "l1Fee": "0xeb15b9c67",
      "l1GasPrice": "0x79b2665fb",
      "l1GasUsed": "0x6da"
    },
    {
      "status": "0x1",
      "cumulativeGasUsed": "0x2e191b",
      "logs": [
        {
          "address": "0x25a27f4257fd7d771cf2da7c9d972880d8af204f",
          "topics": [
            "0xddf252ad1be2c89b69c2b068fc378daa952ba7f163c4a11628f55a4df523b3ef",
            "0x0000000000000000000000000000000000000000000000000000000000000000",
            "0x0000000000000000000000000acd7fdbdc0afd1de17a9f082d4a35589b35b532",
            "0x0000000000000000000000000000000000000000000000000000000000000006"
          ],
          "data": "0x",
          "blockHash": "0x4ebf477306025d46b3556377467430d6ce0a6e963d4ec9d39bc080a8da5c630e",
          "blockNumber": "0xfafa37",
          "transactionHash": "0x54ee217aa31e4eacdef9d790cf126d48e0e049fe69e9f63b59a0012f51c571c2",
          "transactionIndex": "0xd",
          "logIndex": "0x1a",
          "removed": false
        },
        {
          "address": "0x25a27f4257fd7d771cf2da7c9d972880d8af204f",
          "topics": [
            "0xddf252ad1be2c89b69c2b068fc378daa952ba7f163c4a11628f55a4df523b3ef",
            "0x0000000000000000000000000000000000000000000000000000000000000000",
            "0x0000000000000000000000000acd7fdbdc0afd1de17a9f082d4a35589b35b532",
            "0x0000000000000000000000000000000000000000000000000000000000000007"
          ],
          "data": "0x",
          "blockHash": "0x4ebf477306025d46b3556377467430d6ce0a6e963d4ec9d39bc080a8da5c630e",
          "blockNumber": "0xfafa37",
          "transactionHash": "0x54ee217aa31e4eacdef9d790cf126d48e0e049fe69e9f63b59a0012f51c571c2",
          "transactionIndex": "0xd",
          "logIndex": "0x1b",
          "removed": false
        },
        {
          "address": "0x25a27f4257fd7d771cf2da7c9d972880d8af204f",
          "topics": [
            "0xddf252ad1be2c89b69c2b068fc378daa952ba7f163c4a11628f55a4df523b3ef",
            "0x0000000000000000000000000000000000000000000000000000000000000000",
            "0x0000000000000000000000000acd7fdbdc0afd1de17a9f082d4a35589b35b532",
            "0x000000000000000000000000000000000000000000000000000000000000000c"
          ],
          "data": "0x",
          "blockHash": "0x4ebf477306025d46b3556377467430d6ce0a6e963d4ec9d39bc080a8da5c630e",
          "blockNumber": "0xfafa37",
          "transactionHash": "0x54ee217aa31e4eacdef9d790cf126d48e0e049fe69e9f63b59a0012f51c571c2",
          "transactionIndex": "0xd",
          "logIndex": "0x1c",
          "removed": false
        }
      ],
      "logsBloom": "0x00000000000000000000000000000000000002000000000000000000000000000000000000000200000000000000000000001000000400004000000000000000000020000000000000000008000000000000000000000000000000008000000000000000020000000000000000000800000000000000000000000010000002000000000400000000000000000002000000000000000000000000000000000000000000000000000000100008000000000000000000000000000000080000000000000002000000000000000000000000000000000000000000000100000020200000000000000000000000000000000000000000000000000000000000000000",
      "type": "0x2",
      "transactionHash": "0x54ee217aa31e4eacdef9d790cf126d48e0e049fe69e9f63b59a0012f51c571c2",
      "transactionIndex": "0xd",
      "blockHash": "0x4ebf477306025d46b3556377467430d6ce0a6e963d4ec9d39bc080a8da5c630e",
      "blockNumber": "0xfafa37",
      "gasUsed": "0x2f3c3",
      "effectiveGasPrice": "0x1de9b111",
      "from": "0xf6c6f66528ba9dd00583fb74525481f4275273c8",
      "to": "0x25a27f4257fd7d771cf2da7c9d972880d8af204f",
      "contractAddress": null,
      "l1BaseFeeScalar": "0x44d",
      "l1BlobBaseFee": "0x1",
      "l1BlobBaseFeeScalar": "0xa118b",
      "l1Fee": "0xf40d25f20",
      "l1GasPrice": "0x79b2665fb",
      "l1GasUsed": "0x71d"
    }
  ],
  "libraries": [],
  "pending": [],
  "returns": {},
  "timestamp": 1728664418,
  "chain": 84532,
  "commit": "8c8cfa4"
}